{
  "contractName": "Decentragram",
  "abi": [
    {
      "anonymous": false,
      "inputs": [
        {
          "indexed": false,
          "internalType": "uint256",
          "name": "id",
          "type": "uint256"
        },
        {
          "indexed": false,
          "internalType": "string",
          "name": "name",
          "type": "string"
        },
        {
          "indexed": false,
          "internalType": "string",
          "name": "description",
          "type": "string"
        },
        {
          "indexed": false,
          "internalType": "uint256",
          "name": "tipAmount",
          "type": "uint256"
        },
        {
          "indexed": false,
          "internalType": "address payable",
          "name": "author",
          "type": "address"
        }
      ],
      "name": "ImageCreated",
      "type": "event"
    },
    {
      "anonymous": false,
      "inputs": [
        {
          "indexed": false,
          "internalType": "uint256",
          "name": "id",
          "type": "uint256"
        },
        {
          "indexed": false,
          "internalType": "string",
          "name": "name",
          "type": "string"
        },
        {
          "indexed": false,
          "internalType": "string",
          "name": "description",
          "type": "string"
        },
        {
          "indexed": false,
          "internalType": "uint256",
          "name": "tipAmount",
          "type": "uint256"
        },
        {
          "indexed": false,
          "internalType": "address payable",
          "name": "author",
          "type": "address"
        }
      ],
      "name": "ImageTipped",
      "type": "event"
    },
    {
      "inputs": [],
      "name": "imageCount",
      "outputs": [
        {
          "internalType": "uint256",
          "name": "",
          "type": "uint256"
        }
      ],
      "stateMutability": "view",
      "type": "function",
      "constant": true
    },
    {
      "inputs": [
        {
          "internalType": "uint256",
          "name": "",
          "type": "uint256"
        }
      ],
      "name": "images",
      "outputs": [
        {
          "internalType": "uint256",
          "name": "id",
          "type": "uint256"
        },
        {
          "internalType": "string",
          "name": "name",
          "type": "string"
        },
        {
          "internalType": "string",
          "name": "description",
          "type": "string"
        },
        {
          "internalType": "uint256",
          "name": "tipAmount",
          "type": "uint256"
        },
        {
          "internalType": "address payable",
          "name": "author",
          "type": "address"
        }
      ],
      "stateMutability": "view",
      "type": "function",
      "constant": true
    },
    {
      "inputs": [],
      "name": "name",
      "outputs": [
        {
          "internalType": "string",
          "name": "",
          "type": "string"
        }
      ],
      "stateMutability": "view",
      "type": "function",
      "constant": true
    },
    {
      "inputs": [
        {
          "internalType": "string",
          "name": "_imgHash",
          "type": "string"
        },
        {
          "internalType": "string",
          "name": "_description",
          "type": "string"
        }
      ],
      "name": "uploadImage",
      "outputs": [],
      "stateMutability": "nonpayable",
      "type": "function"
    },
    {
      "inputs": [
        {
          "internalType": "uint256",
          "name": "_id",
          "type": "uint256"
        }
      ],
      "name": "tipImageOwner",
      "outputs": [],
      "stateMutability": "payable",
      "type": "function",
      "payable": true
    }
  ],
  "bytecode": "0x60806040526040518060400160405280600c81526020017f446563656e7472616772616d0000000000000000000000000000000000000000815250600090816200004a9190620002de565b5060006001553480156200005d57600080fd5b50620003c5565b600081519050919050565b7f4e487b7100000000000000000000000000000000000000000000000000000000600052604160045260246000fd5b7f4e487b7100000000000000000000000000000000000000000000000000000000600052602260045260246000fd5b60006002820490506001821680620000e657607f821691505b602082108103620000fc57620000fb6200009e565b5b50919050565b60008190508160005260206000209050919050565b60006020601f8301049050919050565b600082821b905092915050565b600060088302620001667fffffffffffffffffffffffffffffffffffffffffffffffffffffffffffffffff8262000127565b62000172868362000127565b95508019841693508086168417925050509392505050565b6000819050919050565b6000819050919050565b6000620001bf620001b9620001b3846200018a565b62000194565b6200018a565b9050919050565b6000819050919050565b620001db836200019e565b620001f3620001ea82620001c6565b84845462000134565b825550505050565b600090565b6200020a620001fb565b62000217818484620001d0565b505050565b5b818110156200023f576200023360008262000200565b6001810190506200021d565b5050565b601f8211156200028e57620002588162000102565b620002638462000117565b8101602085101562000273578190505b6200028b620002828562000117565b8301826200021c565b50505b505050565b600082821c905092915050565b6000620002b36000198460080262000293565b1980831691505092915050565b6000620002ce8383620002a0565b9150826002028217905092915050565b620002e98262000064565b67ffffffffffffffff8111156200030557620003046200006f565b5b620003118254620000cd565b6200031e82828562000243565b600060209050601f83116001811462000356576000841562000341578287015190505b6200034d8582620002c0565b865550620003bd565b601f198416620003668662000102565b60005b82811015620003905784890151825560018201915060208501945060208101905062000369565b86831015620003b05784890151620003ac601f891682620002a0565b8355505b6001600288020188555050505b505050505050565b61100080620003d56000396000f3fe60806040526004361061004a5760003560e01c806306fdde031461004f578063848564821461007a5780638567ade8146100bb57806392053b63146100d7578063a91b831414610102575b600080fd5b34801561005b57600080fd5b5061006461012b565b6040516100719190610871565b60405180910390f35b34801561008657600080fd5b506100a1600480360381019061009c91906108dd565b6101b9565b6040516100b295949392919061095a565b60405180910390f35b6100d560048036038101906100d091906108dd565b61031f565b005b3480156100e357600080fd5b506100ec610641565b6040516100f991906109bb565b60405180910390f35b34801561010e57600080fd5b5061012960048036038101906101249190610b0b565b610647565b005b6000805461013890610bb2565b80601f016020809104026020016040519081016040528092919081815260200182805461016490610bb2565b80156101b15780601f10610186576101008083540402835291602001916101b1565b820191906000526020600020905b81548152906001019060200180831161019457829003601f168201915b505050505081565b60026020528060005260406000206000915090508060000154908060010180546101e290610bb2565b80601f016020809104026020016040519081016040528092919081815260200182805461020e90610bb2565b801561025b5780601f106102305761010080835404028352916020019161025b565b820191906000526020600020905b81548152906001019060200180831161023e57829003601f168201915b50505050509080600201805461027090610bb2565b80601f016020809104026020016040519081016040528092919081815260200182805461029c90610bb2565b80156102e95780601f106102be576101008083540402835291602001916102e9565b820191906000526020600020905b8154815290600101906020018083116102cc57829003601f168201915b5050505050908060030154908060040160009054906101000a900473ffffffffffffffffffffffffffffffffffffffff16905085565b60008111801561033157506001548111155b61033a57600080fd5b6000600260008381526020019081526020016000206040518060a00160405290816000820154815260200160018201805461037490610bb2565b80601f01602080910402602001604051908101604052809291908181526020018280546103a090610bb2565b80156103ed5780601f106103c2576101008083540402835291602001916103ed565b820191906000526020600020905b8154815290600101906020018083116103d057829003601f168201915b5050505050815260200160028201805461040690610bb2565b80601f016020809104026020016040519081016040528092919081815260200182805461043290610bb2565b801561047f5780601f106104545761010080835404028352916020019161047f565b820191906000526020600020905b81548152906001019060200180831161046257829003601f168201915b50505050508152602001600382015481526020016004820160009054906101000a900473ffffffffffffffffffffffffffffffffffffffff1673ffffffffffffffffffffffffffffffffffffffff1673ffffffffffffffffffffffffffffffffffffffff168152505090506000816080015190508073ffffffffffffffffffffffffffffffffffffffff166108fc349081150290604051600060405180830381858888f19350505050158015610539573d6000803e3d6000fd5b5034826060015161054a9190610c12565b82606001818152505081600260008581526020019081526020016000206000820151816000015560208201518160010190816105869190610e14565b50604082015181600201908161059c9190610e14565b506060820151816003015560808201518160040160006101000a81548173ffffffffffffffffffffffffffffffffffffffff021916908373ffffffffffffffffffffffffffffffffffffffff1602179055509050507f1be5317bca8d3f70dc1efe89958be71bff36cdca33fc00a6423e25eb2f1d492f838360200151846040015185606001518560405161063495949392919061095a565b60405180910390a1505050565b60015481565b600082511161065557600080fd5b600081511161066357600080fd5b600073ffffffffffffffffffffffffffffffffffffffff163373ffffffffffffffffffffffffffffffffffffffff160361069c57600080fd5b600160008154809291906106af90610ee6565b91905055506040518060a001604052806001548152602001838152602001828152602001600081526020013373ffffffffffffffffffffffffffffffffffffffff1681525060026000600181526020019081526020016000206000820151816000015560208201518160010190816107279190610e14565b50604082015181600201908161073d9190610e14565b506060820151816003015560808201518160040160006101000a81548173ffffffffffffffffffffffffffffffffffffffff021916908373ffffffffffffffffffffffffffffffffffffffff1602179055509050507fc1d8dfa99b3f84f95d3f0bc4a768addeb97b83b20aef7f9cb6729e126bafd2f960015483836000336040516107cc959493929190610f69565b60405180910390a15050565b600081519050919050565b600082825260208201905092915050565b60005b838110156108125780820151818401526020810190506107f7565b83811115610821576000848401525b50505050565b6000601f19601f8301169050919050565b6000610843826107d8565b61084d81856107e3565b935061085d8185602086016107f4565b61086681610827565b840191505092915050565b6000602082019050818103600083015261088b8184610838565b905092915050565b6000604051905090565b600080fd5b600080fd5b6000819050919050565b6108ba816108a7565b81146108c557600080fd5b50565b6000813590506108d7816108b1565b92915050565b6000602082840312156108f3576108f261089d565b5b6000610901848285016108c8565b91505092915050565b610913816108a7565b82525050565b600073ffffffffffffffffffffffffffffffffffffffff82169050919050565b600061094482610919565b9050919050565b61095481610939565b82525050565b600060a08201905061096f600083018861090a565b81810360208301526109818187610838565b905081810360408301526109958186610838565b90506109a4606083018561090a565b6109b1608083018461094b565b9695505050505050565b60006020820190506109d0600083018461090a565b92915050565b600080fd5b600080fd5b7f4e487b7100000000000000000000000000000000000000000000000000000000600052604160045260246000fd5b610a1882610827565b810181811067ffffffffffffffff82111715610a3757610a366109e0565b5b80604052505050565b6000610a4a610893565b9050610a568282610a0f565b919050565b600067ffffffffffffffff821115610a7657610a756109e0565b5b610a7f82610827565b9050602081019050919050565b82818337600083830152505050565b6000610aae610aa984610a5b565b610a40565b905082815260208101848484011115610aca57610ac96109db565b5b610ad5848285610a8c565b509392505050565b600082601f830112610af257610af16109d6565b5b8135610b02848260208601610a9b565b91505092915050565b60008060408385031215610b2257610b2161089d565b5b600083013567ffffffffffffffff811115610b4057610b3f6108a2565b5b610b4c85828601610add565b925050602083013567ffffffffffffffff811115610b6d57610b6c6108a2565b5b610b7985828601610add565b9150509250929050565b7f4e487b7100000000000000000000000000000000000000000000000000000000600052602260045260246000fd5b60006002820490506001821680610bca57607f821691505b602082108103610bdd57610bdc610b83565b5b50919050565b7f4e487b7100000000000000000000000000000000000000000000000000000000600052601160045260246000fd5b6000610c1d826108a7565b9150610c28836108a7565b9250827fffffffffffffffffffffffffffffffffffffffffffffffffffffffffffffffff03821115610c5d57610c5c610be3565b5b828201905092915050565b60008190508160005260206000209050919050565b60006020601f8301049050919050565b600082821b905092915050565b600060088302610cca7fffffffffffffffffffffffffffffffffffffffffffffffffffffffffffffffff82610c8d565b610cd48683610c8d565b95508019841693508086168417925050509392505050565b6000819050919050565b6000610d11610d0c610d07846108a7565b610cec565b6108a7565b9050919050565b6000819050919050565b610d2b83610cf6565b610d3f610d3782610d18565b848454610c9a565b825550505050565b600090565b610d54610d47565b610d5f818484610d22565b505050565b5b81811015610d8357610d78600082610d4c565b600181019050610d65565b5050565b601f821115610dc857610d9981610c68565b610da284610c7d565b81016020851015610db1578190505b610dc5610dbd85610c7d565b830182610d64565b50505b505050565b600082821c905092915050565b6000610deb60001984600802610dcd565b1980831691505092915050565b6000610e048383610dda565b9150826002028217905092915050565b610e1d826107d8565b67ffffffffffffffff811115610e3657610e356109e0565b5b610e408254610bb2565b610e4b828285610d87565b600060209050601f831160018114610e7e5760008415610e6c578287015190505b610e768582610df8565b865550610ede565b601f198416610e8c86610c68565b60005b82811015610eb457848901518255600182019150602085019450602081019050610e8f565b86831015610ed15784890151610ecd601f891682610dda565b8355505b6001600288020188555050505b505050505050565b6000610ef1826108a7565b91507fffffffffffffffffffffffffffffffffffffffffffffffffffffffffffffffff8203610f2357610f22610be3565b5b600182019050919050565b6000819050919050565b6000610f53610f4e610f4984610f2e565b610cec565b6108a7565b9050919050565b610f6381610f38565b82525050565b600060a082019050610f7e600083018861090a565b8181036020830152610f908187610838565b90508181036040830152610fa48186610838565b9050610fb36060830185610f5a565b610fc0608083018461094b565b969550505050505056fea26469706673582212202fdb75953509238164ec839f91e38248ee1ff2e48077f40d30573cf11621237864736f6c634300080f0033",
  "immutableReferences": {},
  "source": "// SPDX-License-Identifier: GPL-3.0\r\n\r\npragma solidity ^0.8.15;\r\n\r\ncontract Decentragram {\r\n  string public name = \"Decentragram\";\r\n\r\n  //Store Images\r\n  uint public imageCount = 0;\r\n  mapping(uint => Image) public images;\r\n\r\n  struct Image {\r\n    uint id;\r\n    string name;\r\n    string description;\r\n    uint tipAmount;\r\n    address payable author;\r\n  }\r\n\r\n  event ImageCreated(\r\n    uint id,\r\n    string name,\r\n    string description,\r\n    uint tipAmount,\r\n    address payable author\r\n  );\r\n\r\n  event ImageTipped(\r\n    uint id,\r\n    string name,\r\n    string description,\r\n    uint tipAmount,\r\n    address payable author\r\n  );\r\n\r\n  // Create Images\r\n  function uploadImage(string memory _imgHash, string memory _description) public {\r\n\r\n    //Make sure the image hash exists\r\n    require(bytes(_imgHash).length > 0);\r\n\r\n    //Make sure image description exists\r\n    require(bytes(_description).length > 0);\r\n\r\n    /*Make sure uploader address exists\r\n    Alert*/\r\n    require(msg.sender != address(0x0));\r\n\r\n    // Increment image id\r\n    imageCount ++;\r\n\r\n    // Add Image to contract\r\n    images[1] = Image(imageCount, _imgHash, _description, 0, payable(msg.sender));\r\n\r\n    //Trigger an event\r\n    emit ImageCreated(imageCount, _imgHash, _description, 0, payable(msg.sender));\r\n  }\r\n\r\n  function tipImageOwner(uint _id) public payable {\r\n\r\n    //Make sure the id is valid\r\n    require(_id > 0 && _id <= imageCount);\r\n\r\n    //Fetch the image\r\n    Image memory _image = images[_id];\r\n\r\n    //Fetch the author\r\n    address payable _author = _image.author;\r\n\r\n    //pay the author by sending them Ether\r\n    payable(_author).transfer(msg.value);\r\n\r\n    //Increment the tip amount\r\n    _image.tipAmount = _image.tipAmount + msg.value;\r\n\r\n    //Update the image\r\n    images[_id] = _image;\r\n\r\n    //trigger an event\r\n    emit ImageTipped(_id, _image.name, _image.description, _image.tipAmount, _author);\r\n  }\r\n}\r\n\r\n",
  "sourcePath": "C:\\Users\\Asbaq Laareb\\decentragram\\src\\contracts\\Decentragram.sol",
  "compiler": {
    "name": "solc",
    "version": "0.8.15+commit.e14f2714.Emscripten.clang"
  },
  "schemaVersion": "3.4.7",
  "updatedAt": "2022-07-02T16:17:56.950Z",
  "networkType": "ethereum",
  "devdoc": {
    "kind": "dev",
    "methods": {},
    "version": 1
  },
  "userdoc": {
    "kind": "user",
    "methods": {},
    "version": 1
  }
}